:1000000002013FA2A2E433B401056CAA0200BDA222
:10001000A3E433B401067EA0010200BDA2A4E43330
:10002000B401067EA0020200BDA2A5E433B401061D
:100030007EA0030200BDA2A6E433B401057EA004A5
:10004000807BA2A7E433B401057EA005806FA28067
:10005000E433B401057EA0068063A281E433B401D9
:10006000057EA0078057A282E433B401057EA00874
:10007000804BA283E433B401057EA009803FA290A7
:10008000E433B401057EA00A8033A291E433B401C5
:10009000057EA00B8027A293E433B401057EA00C5B
:1000A000801BA297E433B401057EA00D800FA296B9
:1000B000E433B401057EA00E80037EA00F7CBA223B
:1000C00075E900A9D7BA75EA0075930075940075B3
:1000D000910075920075950075960075B10075B226
:1000E0000875B30075B40075C90075CA0075CB00FA
:1000F00075CC0075E10075E200221200C0C2B71293
:100100000003BEB00C5004C2B780F4120003BEB0AE
:100110000C40EC120003BEB00F50E4D2B780E0FAFE
:1001200015FA67FB04FB90FC0CFC44FCACFD09FDDC
:1001300034FD82FDC8FE06FE22FE56FE85FE9A753F
:1001400084017E44041FE47A49B01B4478F97EF8A8
:0501500000090200FAA5
:00000001FF
