:03000000020210E9
:10000B000201CD1200D60A3B7A3508BE34000050EF
:10001B00030200CA7E3508BE34000E28030200CA54
:10002B001202267E5508BE54000050030200CABEC1
:10003B0054000E28030200CABE54000C40030200F9
:10004B00CA7EA003A49000547302007802007F02C2
:10005B00008602008D02009402009B0200A20200A7
:10006B00A90200B00200B70200BE0200C5750A016A
:10007B00D28C804B750A02D28C8044750A03D28CC9
:10008B00803D750A04D28C8036750A05D28C802F80
:10009B00750A06D28C8028750A07D28C8021750AC6
:1000AB0008D28C801A750A09D28C8013750A0AD271
:1000BB008C800C750A0BD28C8005750A0CD28C7E49
:1000CB003508BE34000F7802C28C22A2A2E433B4EE
:1000DB0001056CAA020190A2A3E433B401067EA031
:1000EB0001020190A2A4E433B401067EA002020136
:1000FB0090A2A5E433B401067EA003020190A2A650
:10010B00E433B401057EA004807BA2A7E433B401E1
:10011B00057EA005806FA280E433B401057EA006A6
:10012B008063A281E433B401057EA0078057A282CD
:10013B00E433B401057EA008804BA283E433B40101
:10014B00057EA009803FA290E433B401057EA00A8E
:10015B008033A291E433B401057EA00B8027A293D8
:10016B00E433B401057EA00C801BA297E433B401E9
:10017B00057EA00D800FA296E433B401057EA00E80
:10018B0080037EA00F7CBA2275E900A9D7BA75EA65
:10019B00007593007594007591007592007595002C
:1001AB0075960075B10075B20875B30075B400751E
:1001BB00C90075CA0075CB0075CC0075E10075E2FE
:1001CB000022CA59CA1BC0D17E710A7402AC7B2EA5
:1001DB003401F67E2400FF0B1A300A56F58C7D5342
:1001EB00F58AB2B4D0D1DA1BDA59320000F922F910
:1001FB0081F9E1FA36FA8CFAD7FB24FB68FBAAFBF0
:10020B00E9FC24FC5B7584017E44041FE47A49B04D
:10021B001B4478F97EF8000A02024B7EA06C7E70BC
:10022B00917CB7147C7B78F97CBA147CAB78F22286
:10023B00438901758A8B758CF8C28CD2A9D2AF22F7
:0D024B0012019312023BC2B712000E80FB9D
:00000001FF
