:1000E1000000F922F9E1FA8CFAD7FB68FBE9FC5B25
:080003001200D112000E80FB77
:1000B100E4FDFCC3ED9FEC9E5015E4FBFA0BBB0085
:0F00C100010AEB64704A70F50DBD00010C80E47C
:0100D000220D
:1000D100438901758A8B758CF8C28CD2A9D2AF2263
:10000E00E5A0F460607F0A7E001200B1E5A0F46006
:10001E004DAFA0EF2441604124E0603624F0602B08
:10002E0024F8602024FC601524FE600A14702F75DD
:10003E000801D28C8028750802D28C8021750803A5
:10004E00D28C801A750804D28C8013750805D28C58
:10005E00800C750806D28C8005750807D28CE5A039
:06006E00B4FF02C28C2267
:03000B000200747C
:10007400C0E0C083C082C0D075D000C004C005C039
:1000840007E50825E024E1F582E43400F583E493F0
:10009400FC740193FDECF58CAF058F8AB290D00708
:0D00A400D005D004D0D0D082D083D0E0327F
:030000000200F10A
:0C00F100787FE4F6D8FD7581080200035A
:00000001FF
